:020000040800F2
:1000000078060120690200087102000873020008E6
:10001000750200087702000879020008000000005D
:100020000000000000000000000000007B0200084B
:100030007D020008000000007F0200088102000825
:10004000830200088302000883020008830200087C
:10005000830200088302000883020008830200086C
:10006000830200088302000883020008830200085C
:10007000830200088302000883020008830200084C
:10008000830200088302000883020008830200083C
:10009000830200088302000883020008830200082C
:1000A000830200088302000883020008830200081C
:1000B000830200088302000883020008830200080C
:1000C00083020008830200088302000883020008FC
:1000D00083020008830200088302000883020008EC
:1000E00083020008830200088302000883020008DC
:1000F00083020008830200088302000883020008CC
:1001000083020008830200088302000883020008BB
:1001100083020008830200088302000883020008AB
:10012000830200088302000883020008830200089B
:10013000830200088302000883020008830200088B
:10014000830200088302000883020008830200087B
:10015000830200088302000883020008830200086B
:10016000830200088302000883020008830200085B
:1001700083020008830200088302000800000000D8
:10018000830200088302000883020008830200083B
:10019000830200088302000883020008830200082B
:1001A000830200088302000883020008830200081B
:1001B000830200088302000883020008830200080B
:1001C000830200088302000800F002F800F03CF807
:1001D0000AA090E8000C82448344AAF10107DA45A2
:1001E00001D100F031F8AFF2090EBAE80F0013F0B8
:1001F000010F18BFFB1A43F001031847080800005D
:1002000028080000103A24BF78C878C1FAD85207ED
:1002100024BF30C830C144BF04680C607047000080
:100220000023002400250026103A28BF78C1FBD8FF
:10023000520728BF30C148BF0B6070471FB500F0A0
:10024000B5FB1FBD10B510BD00F063F81146FFF7F8
:10025000F5FF00F0CBF800F081F803B4FFF7F2FFF0
:1002600003BC00F089F800000948804709480047AE
:10027000FEE7FEE7FEE7FEE7FEE7FEE7FEE7FEE756
:10028000FEE7FEE704480549054A064B70470000B3
:1002900089030008C90100087800012078060120C0
:1002A000780201207802012010B5203AC0F00B80BE
:1002B000B1E81850203AA0E81850B1E81850A0E86A
:1002C0001850BFF4F5AF5FEA027C24BFB1E81850C4
:1002D000A0E8185044BF18C918C0BDE810405FEA34
:1002E000827C24BF51F8043B40F8043B08BF7047B0
:1002F000D20728BF31F8023B48BF11F8012B28BFB5
:1003000020F8023B48BF00F8012B70477047704748
:100310007047754600F02CF8AE4605006946534616
:1003200020F00700854618B020B5FFF7ABFFBDE809
:1003300020404FF000064FF000074FF000084FF04C
:10034000000B21F00701AC46ACE8C009ACE8C009DD
:10035000ACE8C009ACE8C0098D46704710B504464A
:10036000AFF300802046BDE81040FFF776BF0000E5
:10037000004870471400012001491820ABBEFEE779
:1003800026000200704700001448006840F4700026
:10039000124908601248006840F0010010490860E6
:1003A00000200F49083108600D4800680D490840D9
:1003B0000B4908600C48091D0860081F006820F4FC
:1003C0008020091F0860002005490C3108604FF0AB
:1003D00000600249803908607047000088ED00E045
:1003E00000380240FFFFF6FE1030002494B0FB48B6
:1003F000006840F0FF00F9490860F948006840F0E3
:100400005530F74908600020091D086041F2555039
:10041000091D0860091D0860F248006860F040602E
:10042000F04908600020091D0860EE480C300068A3
:1004300040F00060EB490C310860081F006840F094
:100440008060091F0860E8480068E74908600020EC
:10045000E6490860E449486045F25550886000204C
:10046000E249091D086041F25550091D086002204B
:10047000091D0860DE48DF4908600020091D08608A
:10048000DB48091D08604000091D08600924DA489E
:10049000006845F255510843D74908600020091DFE
:1004A000086045F25550091D0860091D08600025C7
:1004B000CD48406940F00100CB49486167E2C94836
:1004C0001030006800F40050C64910310860002860
:1004D0006FD0CA480068401CC849086008460068D8
:1004E000062867D2DFE800F06603305DB9F000202F
:1004F00027E0BB49143109684AF6AA221143B84AD9
:1005000014321160002100E0491CBD4A126891427A
:10051000FADB0021B24A143211601146096845F233
:1005200055521143AE4A14321160002100E0491CBB
:10053000B34A12689142FADB0021A94A14321160D1
:10054000401C0628D5DB3FE1002027E00021A44A1B
:10055000143211601146096841F42A4111600021EA
:1005600000E0491CA64A12689142FADB00219C4A2D
:10057000143211601146096841F0550111600021E3
:1005800000E0491C9E4A1268032392FBF3F28A4260
:10059000F7DC0021924A14321160401C0328D5DB9D
:1005A00012E1002056E000218D4A1432116000BF94
:1005B00002E00AE104E1491C914A12689142FADB27
:1005C00087491431096841F00F01854A14321160DE
:1005D000002100E0491C8A4A12689142FADB00219E
:1005E0007F4A143211601146096841F0FF01116021
:1005F000002100E0491C824A12689142FADB002186
:10060000774A143211601146096840F6FF721143AF
:10061000734A14321160002100E0491C784A1268C4
:100620009142FADB00216E4A1432116011460968CA
:100630004FF6FF7211436A4A14321160002100E044
:10064000491C6F4A12689142FADB0021644A143255
:100650001160401C0328A6DBB6E0002053E0002117
:1006600000E0491C664A12689142FADB5C49143189
:1006700009684FF6FF721143594A14321160002184
:1006800000E0491C5E4A12689142FADB0021544A9C
:10069000143211601146096840F6FF721143504A46
:1006A00014321160002100E0491C554A1268914241
:1006B000FADB00214A4A143211601146096841F000
:1006C000FF011160002101E020E0491C4C4B1A6839
:1006D000D31702EB9373B1EBA30FF6DB0021404A73
:1006E000143211601146096841F00F0111600021B8
:1006F00000E0491C424A12689142FADB0021384A64
:1007000014321160401C0328A9DB5DE0002054E096
:10071000002100E0491C3A4A12689142FADB304954
:100720001431096848F6880211432D4A14321160C9
:10073000002100E0491C324A12689142FADB002194
:10074000274A143211601146096842F222221143ED
:10075000234A14321160002100E0491C284A126823
:100760009142FADB00211E4A1432116011460968D9
:1007700048F6880211431A4A14321160002100E041
:10078000491C1F4A12689142FADB0021144A1432B4
:1007900011601146096842F222221143104A1432B4
:1007A0001160002100E0491C154A12689142FADBF1
:1007B00000210B4A14321160401C0428A8DB03E01E
:1007C00000200E49086000BF00BF074800694FF6CF
:1007D000FC71884272D1072D7BD213E03038024081
:1007E00000180240000802400010024000140240BD
:1007F0000140001000040240000C024000000120F3
:1008000004000120DFE805F0040F1A2834425200EA
:1008100001205F490860002000E0401C5D49096834
:100820008842FADB63E0802059490860002000E03C
:10083000401C584909688842FADB58E0544800686F
:1008400040F0010052490860002000E0401C51497E
:1008500009688842FADB4AE04FF480404C4908605E
:10086000002000E0401C4B4909688842FADB3EE06A
:100870004748006840F0010045490860002000E05A
:10088000401C444909688842FADB30E08020404936
:1008900008600846006840F480400860002000E0DE
:1008A000401C3C4909688842FADB20E0384800686F
:1008B00040F0010036490860002002E023E008E033
:1008C000401C344909688842FADB0020304908603E
:1008D0000DE000202E49086000BF00E0401C2D49BB
:1008E00009688842FADB00202B49086000BF00BF7E
:1008F000002000E0401C274909688842FADB6D1C93
:10090000062D00DD00254C22244901A8FFF7CCFC70
:1009100001A850F8240022490860224800694FF6D7
:10092000F971884201D1012000E000201D490969C8
:100930004FF6FA72914201D1012100E000210843F3
:10094000D8B1184800694FF6F971884207D1641C84
:10095000002000E0401C144909688842FADB114875
:1009600000694FF6FA71884207D1641E002000E04A
:10097000401C0D4909688842FADB132C01DB012079
:1009800000E0002040EAD47000B1092400BF96E5E1
:10099000140402400C00012000000120B8090008E6
:1009A000140C024000100240100001204FF0407073
:1009B000E1EE100A704700006F000000EF00000039
:1009C00023000000EE0000006E0000002D0000007B
:1009D0006B000000CB00000021000000E7000000D9
:1009E00031000000DB0000007B0000003D00000043
:1009F0007E000000FE00000033000000FF00000049
:100A00007F000000240A00080000012014000000FC
:100A100004020008380A00081400012064060000DF
:100A20002002000800000000C027090000000000AC
:080A3000A086010070640800BB
:040000050800026984
:00000001FF
