:020000040800F2
:1000000030040120DD010008E5010008E7010008D7
:10001000E9010008EB010008ED0100080000000004
:10002000000000000000000000000000EF010008D8
:10003000F101000800000000F3010008510200086F
:10004000F7010008F7010008F7010008F7010008B0
:10005000F7010008F7010008F7010008F7010008A0
:10006000F7010008F7010008F7010008F701000890
:10007000F7010008F7010008F7010008F701000880
:10008000F7010008F7010008F7010008F701000870
:10009000F7010008F7010008F70100082502000831
:1000A000F7010008F7010008F7010008F701000850
:1000B000F7010008F7010008F7010008F701000840
:1000C000F7010008F7010008F7010008F701000830
:1000D000F7010008F7010008F7010008F701000820
:1000E000F7010008F7010008F7010008F701000810
:1000F000F7010008F7010008F7010008F701000800
:10010000F7010008F7010008F7010008F7010008EF
:10011000F7010008F7010008F7010008F7010008DF
:10012000F7010008F7010008F7010008F7010008CF
:10013000F7010008F7010008F7010008F7010008BF
:10014000F7010008F7010008F7010008F7010008AF
:10015000F7010008F7010008F7010008F70100089F
:10016000F7010008F7010008F7010008F70100088F
:10017000F7010008F7010008F7010008000000007F
:10018000F7010008F7010008F7010008F70100086F
:10019000F7010008F7010008F7010008F70100085F
:1001A000F7010008F7010008F7010008F70100084F
:1001B000F7010008F7010008F7010008F70100083F
:1001C000F7010008F7010008DFF80CD000F018F87C
:1001D00000480047C1050008300401200648804758
:1001E00006480047FEE7FEE7FEE7FEE7FEE7FEE71C
:1001F000FEE7FEE7FEE7FEE759030008C901000835
:10020000064C074D06E0E06840F0010394E8070063
:1002100098471034AC42F6D3FFF7DAFFC80800085D
:10022000E808000800B50748006840F4F070054988
:1002300008600548006800F4F0700449088000F088
:10024000DFF800BD143C014010040240040001200E
:1002500000B50F480088401C00B20D4908800D48C9
:100260000088401C00B20B4908800948B0F9000022
:10027000032802DD0020064908800648008804287B
:1002800002D100200349088000F098F800BD00006A
:10029000020001200000012070B50020002202238E
:1002A00000240221274D2D6805F00C0020B1042800
:1002B00006D0082834D107E0234D244E356033E0C2
:1002C000234D224E35602FE01E4D2D1F2D68C5F3A6
:1002D00080541C4D2D1F2D6805F03F0154B11C4D5D
:1002E000B5FBF1F5174E361F3668C6F3881605FBC9
:1002F00006F209E0144DB5FBF1F5124E361F3668D3
:10030000C6F3881605FB06F20E4D2D1F2D68C5F3AA
:1003100001456D1C6B00B2FBF3F50C4E356003E03C
:10032000094D0A4E356000BF00BF064D2D68C5F36C
:100330000315084E705D054D2D68C540034E3560B0
:1003400070BD0000083802400024F4002C00012099
:1003500040787D01B00800081448006840F470003F
:10036000124908601248006840F001001049086016
:1003700000200F49083108600D4800680D49084009
:100380000B4908600C48091D0860081F006820F42C
:100390008020091F0860002005490C3108604FF0DB
:1003A00000600249803908607047000088ED00E075
:1003B00000380240FFFFF6FE103000240E48B0F96E
:1003C000000030B1012808D002280AD0032810D13B
:1003D0000BE00820094908600BE004200749086089
:1003E00007E002200549086003E001200349086096
:1003F00000BF00BF7047000000000120140402404D
:100400006148B0F9000030B101282FD0022858D03F
:1004100003282AD183E05D48B0F90000202807D0E6
:1004200040280CD0802811D0B0F5807F1CD114E07A
:1004300001205749088000205449088014E0022018
:10044000534908800020514908800DE0032050499D
:10045000088000204D49088006E00A204C490880A9
:1004600000204A49088000BF00BF8AE04748B0F931
:100470000000202807D040280CD0802811D0B0F5EB
:10048000807F1CD114E004204149088000203F49AE
:10049000088014E005203E49088000203B49088080
:1004A0000DE006203A49088000203849088006E01F
:1004B0000B203749088000203449088000BF00BF66
:1004C0005FE03248B0F90000202807D040280CD067
:1004D000802811D0B0F5807F1FD114E007202C496F
:1004E000088000202949088017E008202849088052
:1004F00000202649088010E00920254908800020B6
:100500002249088009E00C20214908800120214966
:10051000088000201D49088000BF00BF31E01B4853
:10052000B0F90000202807D040280CD0802816D031
:10053000B0F5807F23D119E00E20154908800020F6
:10054000124908801BE00020114908801248B0F9C8
:1005500000001249486100200C4908800FE00F207C
:100560000B49088000200949088008E00D2008494F
:1005700008800020074908800449088000BF00BFA8
:1005800000BF00BF704700000000012004000120F0
:10059000100001201200012016000120000002407E
:1005A00002E008C8121F08C1002AFAD1704770473C
:1005B000002001E001C1121F002AFBD1704700009A
:1005C000A848006840F00E00A6490860A54814300D
:1005D000006840F48040A349143108605520A249C6
:1005E0000860081D0068091D0860081D006840F0CB
:1005F0005500091D0860081D00689C4908439A4978
:100600000C31086005209A490860081D0068091D22
:100610000860081D006840F00500091D0860081DFD
:10062000006840F00500091D086045F255509149E9
:100630000860081D0068091D0860081D006845F273
:10064000555108438B4908310860081D006845F280
:100650005551084387490C310860FFF71DFE864855
:1006600000684FF47A72B0FBF2F1481EB0F1807F5F
:1006700000D31BE0481E4FF0E022506150170F22BC
:10068000002804DB13071C0E7C4B1C5406E01307E8
:100690001D0E7B4B00F00F04241F1D5500BF0020D2
:1006A0004FF0E02290610720106100BF4FF4F0701E
:1006B0007449086073490831086041F210117248AA
:1006C000C160012101611720002808DB00F01F0232
:1006D00091404209920002F1E022C2F8001100BFED
:1006E00001206349143108606848B0F9000061498D
:1006F00014310860B4E06648B0F900000A2808DA4E
:100700006348B0F90000634908800020624908800E
:100710008EE05F4800880E2803D100205D490880E4
:1007200086E05B4800880A2803D100205B490880E6
:100730007EE0574800880B2803D1012057490880E4
:1007400076E0534800880F2872D15448008830B9A9
:1007500050480088401C00B25149088006E04F48CC
:100760000088012802D1801E4D4908804FE04B4887
:10077000008828BB00204B49088017E04A480088C1
:10078000A0B942484749B1F9001030F91100394980
:1007900014310860002000E0401C44498842FBDB23
:1007A00040480088401C00B23E4908803D48B0F9EE
:1007B00000103848B0F90000401C814227DADDE71C
:1007C00036480088012822D13248B0F90000354966
:1007D000088017E034480088A0B92C483149B1F9A5
:1007E000001030F91100234914310860002000E0A6
:1007F000401C2E498842FBDB2A480088401E00B27C
:10080000284908802748B0F900000028E2DA254886
:10081000B0F900002249B1F900108842A7D10020A8
:100820001C49088010201A49088001201A490880B4
:1008300019480088012813D100200D49143108609F
:1008400000BF00E0401C19498842FBDB0120084939
:1008500014310860002000E0401C14498842FBDB92
:1008600049E700003038024000040240AAAA0A000A
:1008700000080240000C02402C00012000E400E0CF
:1008800018ED00E0003C0140003801401600012056
:10089000100001200A00012014000120080001209E
:1008A0000C0001200E0001201200012040420F0028
:1008B0000000000000000000010203040607080910
:1008C0000000000001020304E80800080000012005
:1008D00030000000A00500081809000830000120C1
:1008E00000040000B0050008000000000000000047
:1008F00000000000090000000000000000004000AF
:100900007900240030001900120002007800000075
:0809100018003F000024F40070
:04000005080001DD11
:00000001FF
