:020000040800F2
:1000000068060120690200087102000873020008F6
:10001000750200087702000879020008000000005D
:100020000000000000000000000000007B0200084B
:100030007D020008000000007F0200088102000825
:10004000830200088302000883020008830200087C
:10005000830200088302000883020008830200086C
:10006000830200088302000883020008830200085C
:10007000830200088302000883020008830200084C
:10008000830200088302000883020008830200083C
:10009000830200088302000883020008830200082C
:1000A000830200088302000883020008830200081C
:1000B000830200088302000883020008830200080C
:1000C00083020008830200088302000883020008FC
:1000D00083020008830200088302000883020008EC
:1000E00083020008830200088302000883020008DC
:1000F00083020008830200088302000883020008CC
:1001000083020008830200088302000883020008BB
:1001100083020008830200088302000883020008AB
:10012000830200088302000883020008830200089B
:10013000830200088302000883020008830200088B
:10014000830200088302000883020008830200087B
:10015000830200088302000883020008830200086B
:10016000830200088302000883020008830200085B
:1001700083020008830200088302000800000000D8
:10018000830200088302000883020008830200083B
:10019000830200088302000883020008830200082B
:1001A000830200088302000883020008830200081B
:1001B000830200088302000883020008830200080B
:1001C000830200088302000800F002F800F03CF807
:1001D0000AA090E8000C82448344AAF10107DA45A2
:1001E00001D100F031F8AFF2090EBAE80F0013F0B8
:1001F000010F18BFFB1A43F001031847A4040000C5
:10020000C4040000103A24BF78C878C1FAD8520755
:1002100024BF30C830C144BF04680C607047000080
:100220000023002400250026103A28BF78C1FBD8FF
:10023000520728BF30C148BF0B6070471FB500F0A0
:1002400029FA1FBD10B510BD00F031F81146FFF7B7
:10025000F5FF00F0EFF900F04FF803B4FFF7F2FFFD
:1002600003BC00F057F800000948804709480047E0
:10027000FEE7FEE7FEE7FEE7FEE7FEE7FEE7FEE756
:10028000FEE7FEE704480549054A064B70470000B3
:1002900025030008C9010008680001206806012044
:1002A0006802012068020120704770477047754658
:1002B00000F02CF8AE4605006946534620F00700D2
:1002C000854618B020B5FFF7DDFFBDE820404FF0B0
:1002D00000064FF000074FF000084FF0000B21F030
:1002E0000701AC46ACE8C009ACE8C009ACE8C009FD
:1002F000ACE8C0098D46704710B50446AFF30080E6
:100300002046BDE81040FFF7A8BF00000048704736
:100310000800012001491820ABBEFEE726000200BC
:10032000704700001448006840F4700012490860EB
:100330001248006840F001001049086000200F4991
:10034000083108600D4800680D4908400B490860F5
:100350000C48091D0860081F006820F48020091F50
:100360000860002005490C3108604FF00060024928
:10037000803908607047000088ED00E000380240D6
:10038000FFFFF6FE103000241B4909681B4A114389
:10039000194A116000BF18491431096801F00201BF
:1003A0000029F8D04021144A2432116000BF1249BC
:1003B0001431096801F002010029F8D040F0080169
:1003C0000D4A2432116000BF0B491431096801F055
:1003D00001010029F8D000BF07491431096801F074
:1003E00020010029F8D004491431096821F02001C6
:1003F000014A143211607047045800404E20020236
:1004000010B504462046FFF7BFFF204600F044F831
:1004100010BD000000B5002000E0401C1D49096827
:100420008842FADB0820FFF7AFFF002000E0401C05
:10043000184909688842FADB3020FFF7E1FF002005
:1004400000E0401C134909688842FADB3020FFF7BE
:10045000D7FF002000E0401C0E4909688842FADB03
:100460003020FFF7CDFF002000E0401C094909685B
:100470008842FADB2020FFF7C3FF282000F047F86E
:100480000C2000F044F800F023F8062000F03FF8BC
:1004900000BD00000000012000B5034643F0040049
:1004A000FFF772FF002000E0401C084909688842FD
:1004B000FADB23F00400FFF767FF002000E0401C98
:1004C000024909688842FADB00BD000000000120F3
:1004D00000B5012000F01BF8002000E0401C074997
:1004E00009688842FADB022000F011F8002000E0E1
:1004F000401C024909688842FADB00BD0000012067
:1005000010B504460121204600F008F810BD10B5D2
:1005100004460021204600F001F810BDF0B5044665
:100520000D4604F0F006F02000EA041746EA050044
:10053000FFF766FF47EA0500FFF762FFF0BD000026
:100540003748006840F020003549086035480068A9
:1005500040F044003349086032482038006840F0D9
:100560000A00304920390860081D006840F0030087
:10057000091D08602B481438006840F0050029491F
:1005800014390860081F006840F00C00091F08605B
:1005900023481030006840F4800021491031086081
:1005A0001F486030006840F400201D496031086039
:1005B0001D48006820F001001B49086000BF1A4870
:1005C000006800F001000028F9D1174810300068D9
:1005D000164908431449103108601348001D00688B
:1005E000134908431049091D08600846006820F4B3
:1005F000006008600846006840F000700860081F4E
:10060000006840F48050091F08600846006840F404
:10061000003008600846006840F00100086070473C
:10062000303802402014024000580040130F42307E
:100630004E200202FFF784FFFFF7ECFE4D20FFF78C
:100640005FFF4520FFF75CFF4E20FFF759FF532067
:10065000FFF756FF4120FFF753FF4A20FFF750FFF7
:100660004520FFF74DFF2020FFF74AFF5020FFF7FE
:1006700047FF5220FFF744FF5520FFF741FF452079
:10068000FFF73EFF4220FFF73BFF4120FFF738FF17
:1006900000BFFEE74FF04070E1EE100A7047000027
:1006A000C006000800000120080000000402000845
:1006B000C8060008080001206006000020020008AB
:0806C000401F000000000000D3
:040000050800026984
:00000001FF
